:1000000000000320D101000095650000616500003B
:1000100061650000616500006165000061650000C8
:100020006165000061650000616500009565000084
:100030009565000061650000D5AF000025B20000A5
:1000400095650000956500009565000095650000C8
:1000500095650000956500009565000095650000B8
:1000600095650000956500009565000095650000A8
:100070009565000095650000956500009565000098
:100080009565000095650000956500009565000088
:100090009565000095650000956500009565000078
:1000A000514200005D42000095650000956500002A
:1000B00095650000956500009565000001790000D8
:1000C00095650000817F000095650000F5830000C4
:1000D00095650000E98800009565000095650000C1
:1000E0009565000095650000956500009565000028
:1000F0009565000095650000956500009565000018
:100100002DB3000041B3000055B3000069B30000F7
:1001100095650000BF95000095650000956500009D
:1001200095650000956500009565000095650000E7
:1001300095650000956500009565000095650000D7
:1001400051AC000095650000358D000095650000FC
:1001500095650000956500009565000095650000B7
:1001600095650000956500006942000095650000F6
:100170009565000095650000956500009565000097
:100180009565000095650000956500009565000087
:10019000956500009565000041920000956500009E
:1001A0009565000095650000956500009565000067
:1001B0009565000095650000956500009565000057
:1001C0009565000095650000956500009565000047
:1001D0005C4B4CF2205210B51A804DF628121A8052
:1001E00000BF00BF06F0D9F9574B4FF030621A60DC
:1001F000564A9A60564ADA60564B4FF470021A60BB
:10020000554B564A1A60564B1A78110748BF1A7850
:10021000544944BF42F008021A70534BAA221A7084
:10022000524A534B8B4204D252F8040F43F8040B4A
:10023000F8E7504B504A0021934202D243F8041B86
:10024000FAE74E4A4E48002350F8231042F8231094
:100250000133742BF8D14B4B4B4A802103F8011B1F
:100260009342FBD1494B454A1A60494B8A221A7086
:10027000A3F5805324225A70A0221A709A7992070B
:10028000FCD59A79D406FCD4424A937903F00C0346
:10029000082BFAD1404B60221A70404A1378802B09
:1002A000FCD13C4B01221A715D225A719A79900659
:1002B000FCD59979374A4906FBD5394B394919603C
:1002C0000021596020231370937903F00C030C2B49
:1002D000FAD1354B354A1A60354A364C136813F457
:1002E000807302BF23604FF4A8531360324B334A2C
:1002F0001A6000225A60072243F8042C304AC3F8DF
:100300000C2D62B606F049FF2368DA0705D52D48A3
:1003100006F08EFB2C4B2D4A1A602D4B1B785B068A
:1003200009D5294C294B22689A4204D1254806F068
:100330007FFB002323600DF029FC06F035F900F067
:100340004BFAFEE70E20054030800440823F040057
:100350000100002B88ED00E0002008E0030000858C
:1003600002D00740284AFF1F00E00740F08B020040
:100370004042FF1F284AFF1F3C64FF1F0038FF1F39
:100380000000000000E400E064E400E008ED00E0AC
:10039000005006400040064001E0074003E00740EF
:1003A000448004400000060204800440C01007009E
:1003B00010D0034014D0034014E000E01FBF02003F
:1003C00000002020000000001CE00340A5C3945A58
:1003D00000F00740FFFFFFFFFFFFFFFFFFFFFFFFF2
:1003E000FFFFFFFFFFFFFFFFFFFFFFFFFFFFFFFF1D
:1003F000FFFFFFFFFFFFFFFFFFFFFFFFFFFFFFFF0D
:10040000FFFFFFFFFFFFFFFFFFFFFFFFDEF9FFFF23
:1004100010B5054C237833B9044B13B10448AFF33E
:1004200000800123237010BD284AFF1F0000000038
:10043000F48B0200084B10B51BB108490848AFF314
:1004400000800848036803B910BD074B002BFBD0A0
:10045000BDE81040184700BF000000002C4AFF1FF5
:10046000F48B0200284AFF1F000000002DE9F04F26
:10047000002187B004460AF03CFB0546002800F046
:10048000A980E369002B00F0A4801A1D04F1300755
:1004900004F12C0103F5827332F8020B41F8040FCA
:1004A0009342F9D12B1D04F50B7205F5827133F8D7
:1004B000020B42F8040F8B42F9D1394604F634207E
:1004C0000CF006FAB4F8341A019400224FEA410CF9
:1004D0002346A1F102089646624511D28A420CD009
:1004E000424597BF188EA3F830E04000188697BFAA
:1004F000588EA3F832E04000588602320433EBE70E
:10050000394604F644200CF0E3F9D4F82CC0226AF2
:10051000D4F824A0A36ABCF1000F4DD0E1692F4F9D
:1005200001F1020EC2EB0A0001F581710491059000
:100530001146059800EB010BC1F30F204FEA11683B
:100540000290CBF30F20029E039008F1010037F9CF
:10055000188037F910004FEA1B69C6F5803B08FB8D
:100560000BF806FB008050FB0CF009F10108039E1C
:1005700037F9199037F918B0C6F5803809FB08F833
:1005800006FB0B8858FB0CF9019EB6F8308018FB6F
:1005900000F0B6F9328009FB18002EF8020F304641
:1005A00004300190049870451944C2D102EBC31283
:1005B00022620AEBC31303E0DB011A4422625344B4
:1005C000204663620022E1690AF072FAE0690AF0EB
:1005D0004BFAE56107B0BDE8F08F00BFB818010025
:1005E00010B504460AF0D9FA204610BD08B10BF048
:1005F00022BD704710B50446406AFFF7F7FFA069B7
:10060000FFF7F4FFE068FFF7F1FF2068FFF7EEFF68
:10061000204610BD0F4B036000234172026103723C
:10062000C3601946427A934204DA026942F8231001
:100630000133F7E7084A13680BB9106004E05A6900
:100640000AB11346FBE75861002343618380C380EE
:10065000837270472C1501008462FF1FFFFFFFFFAC
:100660002DE9F347504C514E204600F0D4FA04F1E6
:10067000300832464E4920460DF054FA04F5266201
:1006800001214046FFF7C6FF4A4B23634A4BA36450
:10069000002201234FF4807104F664200CF036F937
:1006A0000123002504F684291A464FF4807104F6CC
:1006B00074200CF02BF92A4629464FF04043484657
:1006C00004F69C2725656365E564FFF7A3FF3B4BB4
:1006D000C4F8843A484602F0C9F804F6B42202216C
:1006E0003846FFF797FF364BC4F89C3A384602F07D
:1006F000F1FA04F6BC2AC4F8BC9ADFF8D890C4F822
:10070000C08A504684F8C45A84F8C55AC4F8C85AF6
:1007100084F8CC5A0AF00FFA32464946504604F59E
:100720002D6A0DF0FFF95046C4F8D47AC4F8D08A87
:1007300084F8D85A84F8D95AC4F8DC5A84F8E05AB4
:100740000AF0F9F93246494650460DF0EBF9C4F883
:10075000E87A04F6E4270123384684F8ED3AC4F831
:10076000E48A84F8EC5AC4F8F05A84F8F45A0AF08F
:10077000E2F93246494638460DF0D4F9114B124A97
:100780001B681249009304F6F8242B461268096886
:10079000204601F06DF80E493246204602B0BDE811
:1007A000F0470DF0BFB900BF444AFF1F2843FF1FA9
:1007B000E50B000020150100BC820100C488010087
:1007C000D08801006043FF1F6843FF1F6443FF1F81
:1007D000F5050000E10500007FB5554C55480121A5
:1007E00000F0DAF82078012106F04CFA0121207897
:1007F00006F00EFA642006F0BBFC002120784E4C77
:1008000006F006FA4D4BA3654FF40043E36505205F
:1008100006F0AEFC30214A480AF0B0F8204600F05D
:1008200067FB0021204600F0D5FA4FF07C512046AE
:1008300000F0A7FA434B0125197800954FF47F7318
:10084000002204F6F82001F025F93F4B0022197828
:1008500000954FF47F7304F6F82001F01BF93B4B31
:100860000022197800954FF47F7304F6F82001F008
:1008700011F903AA0021364800F06EFEF8B135499F
:1008800003980CF02DFF002105460DF0C7F850B974
:1008900028460CF07BFA22A3D3E900230CF05AFD82
:1008A00010B12D4D00E0002528460CF06FFA1EA374
:1008B000D3E900230CF0BEFA0CF094FDA06503AA66
:1008C0000121234800F048FE58B903AA022120481C
:1008D00000F042FE0028CCD00399174800F051FAEE
:1008E000C7E7039E0825002130460DF097F840B970
:1008F0004FF07E5130460DF0AFF820B14FF07E50F2
:1009000002E0002000E030460CF040FA0022134BD9
:100910000CF090FA0CF03EFD013DE4D1E065D4E727
:10092000522CB7B4B48AD5405202FF7889C4F7403C
:100930004A43FF1F6C55FF1F444AFF1F5B8C940006
:100940000002FF1F4543FF1F4643FF1F4743FF1F92
:100950003C55FF1F00007A44A655AC460000F0400D
:1009600038B5044608460D460DF052FC2368024691
:1009700029465B6820469847054620460AF034FD24
:10098000284438BD0222026000228260C2600261F7
:1009900042618261426070470229F0B5016018D15E
:1009A0002E4B1022242025240327042606251A7006
:1009B000197123221972FF215A709870DC705F71CF
:1009C0009E71DD715F729E72DD7219735C73987334
:1009D0002EE0012919D1214B0624102224212520A3
:1009E0000227032604251A70DC712322DC722624D8
:1009F0005A709970D8701F715E719D711F725E720E
:100A00009D721C735873997312E031BB134B102203
:100A10001A7002221A7203225A7204229A72062251
:100A2000DA720C221A7320225A731B229A731D2227
:100A3000DA7322221A7421225A740E229A740F2217
:100A4000DA7408221A7507225A7514229A751F2221
:100A5000DA7505221A7615225A76F0BD4443FF1F37
:100A600000687047406870478160704780687047D1
:100A700007B50DF1080E0EE90C0019B1012904D1DA
:100A8000143000E00C3080E80C0003B05DF804FB8B
:100A900003461AB1012A01D1143100E00C3103C917
:100AA00083E803001846704719B1012903D1406952
:100AB0007047C06870470020704719B1012903D101
:100AC00040697047C06870470020704708B5FFF75D
:100AD000EBFF013808BD08B5FFF7EFFF013808BD8F
:100AE0000148FFF74FBF00BF6C55FF1F024B0022AC
:100AF000DA60DA61704700BF8C55FF1FC37A10B50A
:100B0000002B25D072B6C37ADB0705D5174AC36818
:100B100014682340C3611360C37A9C0705D5144A47
:100B200003691468234003621360C37A5A0705D52A
:100B3000104A43691468234043621360C37A1B0759
:100B400005D50D4A8369146823408362136062B639
:100B50000368DA688A4207D0084A1A60D960084AEE
:100B600041F0804119611A6010BD00BF80E100E0D2
:100B700084E100E088E100E08CE100E001403F001A
:100B800000003F80C37AB3B1DB0742BF0A4BC269A2
:100B90001A60C37A990742BF084B026A1A60C37A87
:100BA0005A0742BF064B426A1A60C37A1B0742BF0C
:100BB000044B826A1A60704700E100E004E100E043
:100BC00008E100E00CE100E070B5044608460D467F
:100BD0000DF01EFB23680246294620465B68BDE8EF
:100BE00070401847704710B5302104460BF027FAC3
:100BF000204610BD97234360836079230822C36099
:100C000003610A234361826103629F220023C26160
:100C100043628362704708B5034B0360002380F88A
:100C20002C30FFF7E7FF08BD3815010070472DE9AC
:100C3000F043C2F3002444EA4101234E8DB09046B4
:100C4000CCB24FF03409012521461F4886F83B906D
:100C500086F85E5086F85D5002F010FF5FFA88F16A
:100C6000194802F00BFF2946174803F03DF90746E3
:100C700028B3164968460AF059FD694604A80AF0E7
:100C800003FE394604A80AF029FF1149054608A8C1
:100C90000AF04CFD08A928460AF0F7FE01460D4867
:100CA0000AF082FB0B480AF09FFB08A80AF0FEFC42
:100CB00004A80AF0FBFC68460AF0F8FCC3E72846E3
:100CC0000DB0BDE8F08300BF2C44FF1F5815010094
:100CD000661501004448FF1F426801F01F0122F021
:100CE0001F020A4342600021FFF7A1BF436811B110
:100CF00043F0800301E023F0800343604268002159
:100D0000FFF795BF10B542688368044629B142F4E5
:100D10008072426043F4807304E022F48072426087
:100D200023F480736268A36000212046FFF77FFFF1
:100D3000A26820460121BDE81040FFF778BF826815
:100D400001F01F0122F01F020A4382600121FFF718
:100D50006EBF836811B143F0800301E023F080038C
:100D6000836082680121FFF762BF836911B143F09C
:100D7000200301E023F02003836182690521FFF74E
:100D800056BF38B50D460446002128460CF046FEF5
:100D900068B94FF07E5128460CF05EFE48B90C4908
:100DA00028460CF09DFC0CF09DFE2F3002E0002048
:100DB00000E07F20E26800F07F0022F07F02024323
:100DC000E26020460221BDE83840FFF730BF00BF97
:100DD0000000A042836911B143F0080301E023F051
:100DE0000803836182690521FFF721BF436911B1BF
:100DF00043F0100301E023F0100343614269042132
:100E0000FFF715BF436911B143F0080301E023F078
:100E10000803436142690421FFF709BF836911B1E7
:100E200043F0010301E023F001038361826905219E
:100E3000FFF7FDBE10B5002204460F21FFF7F7FEB5
:100E40002046BDE81040FFF7D5BE10B5012104468D
:100E5000FFF74CFF20460121FFF77BFF20460021D2
:100E6000FFF7DCFFA26942F01002A26105212046D3
:100E7000FFF7DDFE4FF47A7006F07AF90121204683
:100E8000FFF7CCFF4FF4FA7006F072F9204600210C
:100E9000FFF72CFF20460021BDE81040FFF759BFA7
:100EA000FFF7C5BE90F82C3010B504462BB90F489B
:100EB00002F02EFE012384F82C30E26942F0100289
:100EC000E26106212046FFF7B2FE642006F050F9E9
:100ED0009F2206212046FFF7AAFE642006F048F96B
:100EE0002046BDE81040FFF7A5BF00BF2C44FF1F00
:100EF00038B50446FFF7D6FF94F82C302BB93548A7
:100F000002F006FE012384F82C302046FFF792FF02
:100F1000642006F02DF91222E26106212046FFF737
:100F200086FE642006F024F920460021FFF76AFFC0
:100F300020460121FFF75AFF20460121FFF76EFFEF
:100F400020461721FFF7C8FE20461721FFF7F7FEBE
:100F500020460021FFF7CAFE20460021FFF7F9FED8
:100F60004FF4807520460021FFF734FFE5602A46E4
:100F700002212046FFF75BFE25612A460321204619
:100F8000FFF755FE0225022207212046FFF74FFEFC
:100F90002022082125622046FFF749FE20236362B4
:100FA000642006F0E5F8012209212046FFF73FFE04
:100FB000642006F0DDF82A4606212046FFF737FEBA
:100FC000E5614FF4FA7006F0D3F86420BDE83840CC
:100FD00006F0CEB82C44FF1F0A4601B101220921B8
:100FE000FFF725BE38B50446FFF75CFF94F82C30B8
:100FF0002BB9364802F08CFD012384F82C302046B2
:10100000FFF718FF642006F0B3F81222E261062110
:101010002046FFF70CFE642006F0AAF820460021C7
:10102000FFF7F0FE20460121FFF7E0FE20460121F8
:10103000FFF7F4FE20461721FFF74EFE204617214A
:10104000FFF77DFE20460021FFF750FE20460021DD
:10105000FFF77FFE4FF4807520460021FFF7BAFEB0
:101060002A46E56002212046FFF7E1FD2A46256178
:1010700003212046FFF7DBFD422207212046FFF730
:10108000D6FD42232362202208212046FFF7CFFD10
:1010900020236362642006F06BF8012209212046B8
:1010A000FFF7C5FD642006F063F802220621204602
:1010B000FFF7BDFD0223E3614FF4FA7006F058F824
:1010C0006420BDE8384006F053B800BF2C44FF1F31
:1010D000704710B5302104460AF0B1FF204610BD1C
:1010E00008B10AF0A8BF7047F0B50B460746154691
:1010F00000243A19934208D02E1918BF07CA04F1E8
:101100000C0418BF86E80700F3E7DB1B04489B08C4
:10111000434323F040430C2000FB0350F0BD00BFCD
:10112000ABAAAA2AF0B584460E4617464FF0000E29
:101130000CEB0E04A6420CD017EB0E051EBF0FCC15
:101140000FC594E807000EF11C0E18BF85E80700D4
:10115000EEE7CCEB06060448B608464326F04046C8
:101160001C2000FB0670F0BDB76DDB3608B50349E7
:101170000348FFF7F5FB05F048FA00BF73150100BF
:101180004448FF1F064C074908B505462046FFF7AF
:101190001BFD29462046FFF7E3FB05F036FA00BFAA
:1011A0004448FF1F8D1501002DE9F84F9946046949
:1011B0004369304E9C4205460F4690460DD044B1DF
:1011C000204601F04FF9002363610A9B84F81190D7
:1011D000A3612B691C332B613CE0C368E41AA410A3
:1011E000744314BF23460123E418234B01D29C42CD
:1011F0002CD91C461C2060430AF019FF82462A693C
:10120000E968C1EB020B1AEB0B0B0CD042463946D6
:10121000584601F027F900220A9B8BF81190CBF871
:101220001420CBF8183052462969E868FFF77AFF96
:101230008146E868FFF754FF09F11C022A611C226D
:1012400002FB04A4C5F80CA06C6103E0002CD1D112
:10125000A246D4E73846002105F014FD404600219F
:1012600005F010FD2B69E868181A801070430138EA
:10127000BDE8F88FB76DDBB64992240910B5C36994
:101280008469094A1B1B9B105343994209D20C23C2
:1012900003FB0144204601F0DBFE237A5840C0B234
:1012A00010BD002010BD00BFABAAAAAA10B504460D
:1012B00001F09BFE204601F0D7FE18B1237A0BB94E
:1012C000012010BD204601F0C7FE18B1207A002889
:1012D000F6D110BD10BD10B4C3698469074A1B1B49
:1012E0009B105343994205D20C2000FB014010BCD7
:1012F000FFF7DCBF002010BC704700BFABAAAAAA52
:1013000010B5044601F071FE204601F0A1FE237ADB
:101310005840C0B210BD10B4C3698469074A1B1B92
:101320009B105343994205D20C2000FB014010BC96
:10133000FFF7E6BF002010BC704700BFABAAAAAA07
:1013400010B5044601F051FE2046BDE8104001F002
:101350007FBE70B504460E4601F047FE204601F000
:101360007BFE054618B1237A83F0010305E0204691
:1013700001F07AFE054610B1237A337005E020466D
:1013800001F066FE237A58403070284670BD70B474
:10139000C3698569084C5B1B9B10634399420E46E9
:1013A00006D20C2000FB0650114670BCFFF7D1BFDF
:1013B000002070BC704700BFABAAAAAA4160074AD0
:1013C000007852F8302011F0FF0F4FF0010314BFE6
:1013D00082F8803082F80031704700BF348C010001
:1013E00030B4836A446A1B1BB1EBE30F0D4605D290
:1013F00004EBC500114630BCFFF7E0BF30BC7047BE
:1014000030B4836A446A1B1BB1EBE30F0D4605D26F
:1014100004EBC500114630BCFFF7D0BF30BC7047AD
:1014200043680178074A002B0CBF0123002352F8C0
:10143000312043604FF001030CBF82F8803082F806
:1014400000317047348C0100426A836A9B1AB1EB09
:10145000E30F03D202EBC100FFF7E2BF7047016167
:1014600070472DE9F3413B4A136800930D46009BFA
:10147000016B5B1AC16A9942044601D9002465E0F8
:1014800013680193019B0363007804F0CFFF636846
:10149000A668984203D3864228BF064600E01E464F
:1014A00027694FF07E5039460CF010F880463046E0
:1014B0000CF0BEF8014640460CF012F90646E06812
:1014C0000CF0B6F839460CF00BF9014630460BF03B
:1014D000FFFF0CF0E1FAA16AE0608842CED0431A27
:1014E000002B626AB8BF5B429342A36904D2E269EF
:1014F000904201D29842C1D8984205D29942E36005
:10150000BCD0A362002308E0E269904207D991426F
:10151000E260B3D0A2624FF07E532B600CE0A06279
:10152000C01A0CF085F80646206A0CF081F80146D6
:1015300030460CF089F92860647834B129684FF09E
:101540007E500BF0C3FF286000E00124204602B06B
:10155000BDE8F081AC5DFF1F70B443680568084CBE
:101560005B1B9B10634399420E4606D2342000FB5E
:101570000650114670BCFFF774BF002070BC704766
:10158000C54EECC4007804F051BF10B44368046841
:10159000074A1B1B9B105343994205D2342000FB82
:1015A000014010BCFFF7EEBF002010BC704700BF29
:1015B000C54EECC4F8B50546846846686961A01B51
:1015C0000F460CF035F839460CF08AF80CF08AFA20
:1015D0000644241AEC61A41BAE612C62F8BD13B55D
:1015E00083600023C36083621423C3620A4B0170CB
:1015F0001B689DF8101042600193084A4170026117
:101600000749019B41610822426203630446FFF7D8
:10161000D1FF204602B010BDAC5DFF1FCDCC4C3FCA
:10162000CDCC4C3D70B5066844680A4DA41BA4108F
:101630006C43A1420CD2342000FB016083609DF812
:101640001030426043704169FFF7B4FF012070BD64
:10165000002070BDC54EECC410B441608260437080
:10166000416910BCFFF7A6BFC162704710B50446C0
:1016700008460CF037FA606210BDF8B504460D4616
:1016800009F044F80028FBDC34493548FFF79CFAA0
:10169000294600230A22324809F0D7FE304809F0D3
:1016A000A3FE30492E48FFF75BF9642005F060FD8A
:1016B00009F02CF80028F8DD284604F0B7FE0746AC
:1016C000206009F023F810B108F0DEFFF9E72649A1
:1016D0002348FFF745F9642005F04AFD09F016F8A4
:1016E0000028F8DD284604F0A1FE0646606009F0F7
:1016F0000DF810B108F0C8FFF9E7B74282BF012327
:10170000237284E8C00019491548FFF75DFA0023E9
:101710000A222946124809F098FE15491048FFF799
:1017200053FA00230A2221680D4809F08EFE114960
:101730000B48FFF749FA00230A226168084809F0BC
:1017400084FE0D490648FFF73FFA217A044809F064
:10175000B7FE034809F048FE2046F8BD9C1501007D
:101760004448FF1FAD150100061601005716010081
:1017700070160100791601008016010010B5037C77
:10178000012B044603D872B600F0DEF900E072B611
:10179000E26862B663696261D31A627C02B15B423D
:1017A000A06993FBF0F010BD10B40369C468074A48
:1017B0001B1B9B105343994205D21C2000FB014088
:1017C00010BCFFF7DBBF002010BC7047B76DDBB665
:1017D0008161704770B5036AC5699D4204460E4633
:1017E00009D025B1284601F0D5FB01232B72E3690E
:1017F0000C33E36102E0183000F072FEE06931461C
:101800000C3801F0CEFBE0690A210C3801F0EBFB4B
:101810003046002105F036FAA069E3691B1A024838
:101820009B105843013870BDABAAAAAA13B5836AAE
:10183000C26A8DF807109342044608D0CAB213B1A9
:101840001A7000225A60A36A0833A36204E00DF103
:101850000701243000F07EFE9DF80700012105F00D
:1018600011FAA36A606A181AC010013802B010BDDC
:101870002DE9F84F00250446174699460A9E056053
:1018800045608560C560056145618561C56105622A
:1018900045628562C562D9B14C4B994202D94C4828
:1018A000FFF770FC0C2303FB01F840460AF0BFFB76
:1018B0002946824602462846FFF716FCA069FFF734
:1018C0000FFC0AEB0801C4F818A0C4F81CA02162A0
:1018D0001FB3404B9F42E2D82568A3683E4A5B1B7A
:1018E0009B1053439F4218D9342257433846D4F8AB
:1018F00004B00AF09CFB594680460246284600F098
:1019000089FEC5EB0B0A2068FFF7EAFB474408EBAA
:101910000A03C4F800806360A760B9F1000F24D007
:101920002E4B9945BBD8E76863692D4ADB1B9B109A
:101930005343994519D91C2202FB09F52846D4F8CE
:1019400010B00AF074FB5946804602463846FFF74D
:10195000E9FBC7EB0B0AE068FFF7C2FB454408EB65
:101960000A03C4F80C80236165615EB3B6F1005FC1
:1019700095D2D4F82480E36AC8EB0303B6EBE30FF7
:1019800020D9F6003046D4F828900AF050FBC8EB76
:1019900009070546002308EB030291450AD015EB21
:1019A000030E18BF92E8030003F1080318BF8EE886
:1019B0000300F0E7606A2F442E44FFF791FB656255
:1019C000A762E6622046BDE8F88F00BF5555551561
:1019D00089160100C44EEC04C54EECC4499224099A
:1019E000B76DDBB62DE9F74346688568AE4204461D
:1019F0000F469046994609D026B100200090304607
:101A0000FFF7EDFD6368343363602EE01E4A012169
:101A100000F0E2FD054650B11C4B984201D9FFF79A
:101A2000A5FB342068430AF002FB064600E00646A8
:101A300094E80900181A301806D000230093424693
:101A40004B463946FFF7CBFD324694E8030000F0E1
:101A5000E1FD80462068FFF743FB08F13403636033
:101A6000342303FB05652660A5603846002105F098
:101A700009F994E809001B1A05489B1058430138DE
:101A800003B0BDE8F08300BF99160100C44EEC041A
:101A9000C54EECC42DE9F347466885689DF828805B
:101AA000AE4204460F4691469A4609D026B1CDF87B
:101AB00000803046FFF793FD6368343363602EE0A7
:101AC0001E4A012100F088FD054650B11C4B98428A
:101AD00001D9FFF74BFB342068430AF0A8FA064609
:101AE00000E0064694E80900181A301806D0CDF830
:101AF000008053464A463946FFF771FD324694E866
:101B0000030000F087FD80462068FFF7E9FA08F13E
:101B100034036360342303FB05652660A560384603
:101B2000002105F0AFF894E809001B1A05489B1046
:101B30005843013802B0BDE8F08700BF9916010094
:101B4000C44EEC04C54EECC410B50368017A1C7891
:101B500043681A78437A1A40837A0C4203F00303ED
:101B600018BF43F004030AB143F008039A10013B85
:101B700082720D2B14D8DFE803F0070A0D0A131048
:101B8000070710130A0D0A07C368013307E0C3688B
:101B9000013B04E0C368023301E0C368023BC36059
:101BA00010BDFFFF08B5034BD3F8EC00FFF7CCFFE7
:101BB00008BD00BF1C5AFF1F08B5034BD3F8E8004F
:101BC000FFF7C2FF08BD00BF1C5AFF1F08B5034B3B
:101BD000D3F8E400FFF7B8FF08BD00BF1C5AFF1F91
:101BE00008B5034BD3F8E000FFF7AEFF08BD00BF18
:101BF0001C5AFF1F08B5034BD3F8DC00FFF7A4FF06
:101C000008BD00BF1C5AFF1F08B5034BD3F8D8000E
:101C1000FFF79AFF08BD00BF1C5AFF1F08B5034B12
:101C2000D3F8D400FFF790FF08BD00BF1C5AFF1F78
:101C300008B5034BD3F8D000FFF786FF08BD00BFFF
:101C40001C5AFF1F08B5034BD3F8CC00FFF77CFFED
:101C500008BD00BF1C5AFF1F08B5034BD3F8C800CE
:101C6000FFF772FF08BD00BF1C5AFF1F08B5034BEA
:101C7000D3F8C400FFF768FF08BD00BF1C5AFF1F60
:101C800008B5034BD3F8C000FFF75EFF08BD00BFE7
:101C90001C5AFF1F08B5034BD3F8BC00FFF754FFD5
:101CA00008BD00BF1C5AFF1F08B5034BD3F8B8008E
:101CB000FFF74AFF08BD00BF1C5AFF1F08B5034BC2
:101CC000D3F8B400FFF740FF08BD00BF1C5AFF1F48
:101CD00008B5034BD3F8B000FFF736FF08BD00BFCF
:101CE0001C5AFF1F08B5034BD3F8AC00FFF72CFFBD
:101CF00008BD00BF1C5AFF1F08B5034BD3F8A8004E
:101D0000FFF722FF08BD00BF1C5AFF1F08B5034B99
:101D1000D3F8A400FFF718FF08BD00BF1C5AFF1F2F
:101D200008B5034BD3F8A000FFF70EFF08BD00BFB6
:101D30001C5AFF1F08B5034BD3F89C00FFF704FFA4
:101D400008BD00BF1C5AFF1F08B5034BD3F898000D
:101D5000FFF7FAFE08BD00BF1C5AFF1F08B5034B72
:101D6000D3F89400FFF7F0FE08BD00BF1C5AFF1F18
:101D700008B5034BD3F89000FFF7E6FE08BD00BF9F
:101D80001C5AFF1F08B5034BD3F88C00FFF7DCFE8D
:101D900008BD00BF1C5AFF1F08B5034BD3F88800CD
:101DA000FFF7D2FE08BD00BF1C5AFF1F08B5034B4A
:101DB000D3F88400FFF7C8FE08BD00BF1C5AFF1F00
:101DC00008B5034BD3F88000FFF7BEFE08BD00BF87
:101DD0001C5AFF1F08B5024BD86FFFF7B5FE08BDB0
:101DE0001C5AFF1F08B5024B986FFFF7ADFE08BDE8
:101DF0001C5AFF1F08B5024B586FFFF7A5FE08BD20
:101E00001C5AFF1F08B5024B186FFFF79DFE08BD57
:101E10001C5AFF1F08B5024BD86EFFF795FE08BD90
:101E20001C5AFF1F08B5024B986EFFF78DFE08BDC8
:101E30001C5AFF1F08B5024B586EFFF785FE08BD00
:101E40001C5AFF1F08B5024B186EFFF77DFE08BD38
:101E50001C5AFF1F08B5024BD86DFFF775FE08BD71
:101E60001C5AFF1F08B5024B986DFFF76DFE08BDA9
:101E70001C5AFF1F08B5024B586DFFF765FE08BDE1
:101E80001C5AFF1F08B5024B186DFFF75DFE08BD19
:101E90001C5AFF1F08B5024BD86CFFF755FE08BD52
:101EA0001C5AFF1F08B5024B986CFFF74DFE08BD8A
:101EB0001C5AFF1F08B5024B586CFFF745FE08BDC2
:101EC0001C5AFF1F08B5024B186CFFF73DFE08BDFA
:101ED0001C5AFF1F08B5024BD86BFFF735FE08BD33
:101EE0001C5AFF1F08B5024B986BFFF72DFE08BD6B
:101EF0001C5AFF1F08B5024B586BFFF725FE08BDA3
:101F00001C5AFF1F08B5024B186BFFF71DFE08BDDA
:101F10001C5AFF1F08B5024BD86AFFF715FE08BD13
:101F20001C5AFF1F08B5024B986AFFF70DFE08BD4B
:101F30001C5AFF1F08B5024B586AFFF705FE08BD83
:101F40001C5AFF1F08B5024B186AFFF7FDFD08BDBC
:101F50001C5AFF1F08B5024BD869FFF7F5FD08BDF5
:101F60001C5AFF1F08B5024B9869FFF7EDFD08BD2D
:101F70001C5AFF1F08B5024B5869FFF7E5FD08BD65
:101F80001C5AFF1F08B5024B1869FFF7DDFD08BD9D
:101F90001C5AFF1F08B5024BD868FFF7D5FD08BDD6
:101FA0001C5AFF1F08B5024B9868FFF7CDFD08BD0E
:101FB0001C5AFF1F08B5024B5868FFF7C5FD08BD46
:101FC0001C5AFF1F08B5024B1868FFF7BDFD08BD7E
:101FD0001C5AFF1F08B53B2800F22B82DFE810F0E7
:101FE0003C00420048004E0054005A006000660069
:101FF0006C00720078007E0084008A0090009600D9
:102000009C00A200A800AE00B400BA00C000C60048
:10201000CC00D200D800DE00E400EA00F000F600B8
:10202000FC0003010A01110118011F0126012D0105
:1020300034013B0142014901500157015E01650134
:102040006C017301E001E701EE01F501FC010302FF
:102050000A021102180222029E4B0422196000207B
:102060009D49DBE19B4B0422596001209B49D5E14E
:10207000984B0422996002209949CFE1954B0422A4
:10208000D96003209749C9E1924B04221961104697
:102090009549C3E18F4B0422596105209349BDE165
:1020A0008C4B0422996106209149B7E1894B0422A7
:1020B000D96107208F49B1E1864B042219620820BB
:1020C0008D49ABE1834B0422596209208B49A5E17C
:1020D000804B042299620A2089499FE17D4B0422AA
:1020E000D9620B20874999E17A4B042219630C20AD
:1020F000854993E1774B042259630D2083498DE193
:10210000744B042299630E20814987E1714B0422AC
:10211000D9630F207F4981E16E4B0422196410209E
:102120007D497BE16B4B0422596411207B4975E1A9
:10213000684B04229964122079496FE1654B0422AF
:10214000D9641320774969E1624B04221965142090
:10215000754963E15F4B04225965152073495DE1C0
:102160005C4B042299651620714957E1594B0422B2
:10217000D96517206F4951E1564B04221966182082
:102180006D494BE1534B0422596619206B4945E1D7
:10219000504B042299661A2069493FE14D4B0422B5
:1021A000D9661B20674939E14A4B042219671C2074
:1021B000654933E1474B042259671D2063492DE1EE
:1021C000444B042299671E20614927E1414B0422B8
:1021D000D9671F205F4921E13E4B0422C3F88010DC
:1021E00020205D491AE13B4B0422C3F884102120D2
:1021F0005A4913E1374B0422C3F88810222058496A
:102200000CE1344B0422C3F88C102320554905E11E
:10221000304B0422C3F8901024205349FEE02D4B8C
:102220000422C3F8941025205049F7E0294B0422DA
:10223000C3F8981026204E49F0E0264B0422C3F83C
:102240009C1027204B49E9E0224B0422C3F8A01040
:1022500028204949E2E01F4B0422C3F8A41029209A
:102260004649DBE01B4B0422C3F8A8102A2044494E
:10227000D4E0184B0422C3F8AC102B204149CDE028
:10228000144B0422C3F8B0102C203F49C6E0114B78
:102290000422C3F8B4102D203C49BFE00D4B0422AA
:1022A000C3F8B8102E203A49B8E00A4B0422C3F80C
:1022B000BC102F203749B1E0064B0422C3F8C010F0
:1022C00030203549AAE0034B0422C3F8C410312062
:1022D0003249A3E01C5AFF1FC51F0000B51F0000B4
:1022E000A51F0000951F0000851F0000751F00003E
:1022F000651F0000551F0000451F0000351F00002E
:10230000251F0000151F0000051F0000F51E00001E
:10231000E51E0000D51E0000C51E0000B51E000011
:10232000A51E0000951E0000851E0000751E000001
:10233000651E0000551E0000451E0000351E0000F1
:10234000251E0000151E0000051E0000F51D0000E2
:10235000E51D0000D51D0000C11D0000AD1D0000E1
:10236000991D0000851D0000711D00005D1D00000D
:10237000491D0000351D0000211D00000D1D00003D
:10238000F91C0000E51C0000D11C0000BD1C000071
:10239000A91C0000951C0000811C00006D1C0000A1
:1023A000254B0422C3F8C8103220244936E0224BC2
:1023B0000422C3F8CC10332021492FE01E4B042205
:1023C000C3F8D01034201F4928E01B4B0422C3F867
:1023D000D41035201C4921E0174B0422C3F8D81033
:1023E00036201A491AE0144B0422C3F8DC103720B7
:1023F000174913E0104B0422C3F8E01038201549A8
:102400000CE00D4B0422C3F8E4103920124905E01A
:10241000094BC3F8E810114904223A2004F064FC87
:10242000012008BD044B0422C3F8EC103B200C49EA
:10243000F4E7002008BD00BF1C5AFF1F591C000014
:10244000451C0000311C00001D1C0000091C000080
:10245000F51B0000E11B0000CD1B0000B91B0000B4
:10246000A51B000070B50E460446154630460221F5
:1024700004F008FC2846022104F004FC164A52F835
:10248000363003F5007121600121217252F83520A8
:10249000617202F500700021E16060600F4901394E
:1024A000FDD193F8003292F8002203F00103D20725
:1024B00044BF43F00203DBB2A37221463046FFF76C
:1024C00089FD214620742846FFF784FD237C1844AB
:1024D0002074204670BD00BF348C0100C0D40100C0
:1024E000F8B5046843681B1B184C9B105C4314BF71
:1024F00023460123E3180546154C01D2A3421FD9F8
:102500000C20604309F093FD07466B682E689E1B04
:10251000BE1904D0304600F03DFD012333723A4627
:1025200095E80300FEF7E0FD06462868FEF7D8FDB3
:102530000C230C3603FB04742F606E60AC60F8BD96
:102540001C46002BDCD11F46DFE700BFABAAAAAABE
:102550005555551543682DE9F04104681C1BE410DE
:1025600014BF23460123E4180746884602D2B4F17B
:10257000005F2CD36FF06044E00009F058FD054681
:102580007E68D7F800E098F80010CEEB0603EA1852
:102590001EBFE9540021516000220EEB02018E4261
:1025A00009D015EB020C18BF03C902F1080218BFCD
:1025B0008CE80300F1E70833EE18704605EBC4041D
:1025C000FEF78EFD87E86000BC60BDE8F081002C5E
:1025D000D2D12546D4E7FFFF38B5046843681B1BFA
:1025E0009C100A4B63430A4CE51A8D4202D21046F6
:1025F000FEF7C8FD99422CBF5818D818984203D34B
:10260000A04228BF204638BD204638BDC54EECC488
:10261000C44EEC0430B5034614468B421FD0DCB1E7
:102620001D7825705D7865705D6865609D68A56042
:10263000DD68E5601D6925615D6965619D69A5616C
:10264000DD69E5611D6A25625D6A65629D6AA56254
:10265000DD6AE5621D6B256334333434DDE71B1A14
:1026600004499B084B4323F04043342000FB0320E4
:1026700030BD00BFC54EEC0403680022DA71B1F131
:10268000804F19609A80036801D39A680AB90122C1
:102690009A6003680022DA607047036800229A712A
:1026A000B1F1804F19619A82036801D39A680AB91F
:1026B00001229A60036800229A617047F0B5002AEF
:1026C000134E144F14BF4FF060544FF06454002267
:1026D00036F8125097FBF5F5A94204D3190707D530
:1026E00044F0806404E0551C172DF7D02A46EFE72C
:1026F00009495B0751F8222007D522F470431209DB
:1027000002F4706244F000741A4322430260F0BD88
:10271000C4890100008793036889010010B504464D
:10272000FFF7CCFF204610BD10B5044608F034FB7F
:10273000204610BD024A034903480BF0F3B900BF1D
:102740002843FF1F29270000B055FF1F70B5084E12
:10275000084D094C3246294620460BF0E3F9324633
:10276000294604F11000BDE870400BF0DBB900BF52
:102770002843FF1F29270000CC55FF1F70B5184ABA
:10278000136810791969174B1870174B994205D2C5
:10279000117A39B115490120086003E01846A3F504
:1027A000807301E003F58070D1680D4D1469A9B103
:1027B000A4B1AA8A402A11D802F14006520011445D
:1027C0002244AE820231023233F9044B21F8024F27
:1027D000984233F9024C22F8024FF5D870BD00BF81
:1027E0000056FF1F1F800040C033FF1F08E200E0BB
:1027F000F8B5064608F0F4F8044640B108F0F0F8E1
:10280000054628B9204608F02FF92C4600E0054679
:1028100072B6154B9A8A7F2A14D90022DF689A82F1
:10282000DC601C691D6162B63946304608F040F92B
:10283000384608F019F930460122214608F038F9E7
:1028400020460BE074B1DA681AB9DC601D619A8227
:1028500008E062B6204608F007F92846BDE8F840CF
:1028600008F002B962B6F8BD0056FF1F10B5284C3B
:102870000121204608F03CFA00F0C2F9254B264819
:102880004FF480621A602368244A1A6040F20111F2
:10289000D98002219960998200224FF480711861D9
:1028A0009A80D9821E48D98306219983DA6098617B
:1028B000237903F1804303F504331A708C221A70D4
:1028C000184A136843F0124343F00103136052F8AF
:1028D000803C43F0104342F8803C08F099F9124BD9
:1028E000227920721A702279104B114802F11001DE
:1028F00043F8210053119B0003F1604303F561434A
:1029000002F01F02012101FA02F21A6010BD00BF9D
:102910000056FF1F14B00440C032FF1FA2F0024057
:1029200000FEFFFF80F002401B8000400038FF1FC8
:102930007D27000010B5284C0121204608F0D8F969
:1029400000F028FA254B26484FF480621A6023686D
:10295000244A1A6040F20111D980022100229960B4
:1029600099824FF4807118619A80D9821E48D98368
:1029700006219983DA609861237903F1804303F596
:1029800004331A708C221A7008F042F9174B22791E
:1029900020721A70164A1748136843F0124343F026
:1029A0000103136052F8803C43F0104342F8803C2E
:1029B0002279114B02F1100143F8210053119B00C1
:1029C00003F1604303F5614302F01F02012101FAA4
:1029D00002F21A6010BD00BF0056FF1F14B0044081
:1029E000C032FF1FA2F0024000FEFFFF1B8000402C
:1029F00080F002407D2700000038FF1F024A034993
:102A000003480BF08FB800BF2843FF1F29270000A1
:102A10000056FF1F024A034903480BF083B800BF6A
:102A20002843FF1F292700001856FF1F024A0349A9
:102A300003480BF077B800BF2843FF1F2927000089
:102A40003C56FF1F024A034903480BF06BB800BF16
:102A50002843FF1F292700006856FF1F024A034929
:102A600003480BF05FB800BF2843FF1F2927000071
:102A70008856FF1F024A034903480BF053B800BFB2
:102A80002843FF1F29270000D056FF1F024A034991
:102A900003480BF047B800BF2843FF1F2927000059
:102AA0001C57FF1F024A034903480BF03BB800BF05
:102AB0002843FF1F292700009457FF1F024A03499C
:102AC00003480BF02FB800BF2843FF1F2927000041
:102AD000B458FF1F2DE9F041294C2A4823682A4A9F
:102AE0001B6821791170834205D2237A2BB1274BC1
:102AF00001221A6001E0A0F58070E768D4F8108028
:102B0000A58AE68A8FB16B00391D4035B8F1000FF8
:102B100007D008F1040202EB4602194403F0ACFAB4
:102B20000CE0194403F0C7FA0FE0B8F1000F07D02A
:102B300008F1040101EB460103F0DDFA403604E040
:102B40004FF4807241460BF0DAF87F2D01D8A58250
:102B500007E000253846A58207F086FFA369E360F9
:102B6000A5617F2E02D8E682BDE8F08100254046AF
:102B7000E58207F079FFE3692361E561BDE8F08153
:102B8000C058FF1FC035FF1F1F80004008E200E053
:102B900010B50021044607F09FFF024690B172B6BF
:102BA000164BD86810B9DA60988202E0996911B9B9
:102BB0009A6162B606E09A610022D9609A8262B692
:102BC00007F052FF0121204607F086FF0246A0B120
:102BD00072B60A4B186910B91A61D88202E0D96935
:102BE00011B9DA6162B610BDDA6100221961DA82C8
:102BF00062B6BDE8104007F037BF10BDC058FF1FD8
:102C0000254B26491A6842F4004230B51A600A681A
:102C100042F002020A601A6842F002021A60204B77
:102C20001B68002B37DB1F4B1B68002B33DB1E4B55
:102C30004FF080421A601A68002AFCDB1B4B1C4DC7
:102C400000244FF2FE021A6043F8A44CA43B01207A
:102C5000184A43F85C0C4FF4803143F8582C164A5C
:102C600043F8541C43F8502C144B2B60C5F8CC404F
:102C7000134C20601348144C0460416013490A60EF
:102C8000134A136002F5DF3202F5BA724FF4C063E3
:102C900013605360136130BD3C80044040800440A9
:102CA00000F0024080F0024000F1024004F10240D6
:102CB00014F00240010000071B1F0100001F1F1F2E
:102CC00084F0024088F002400100004790F002408A
:102CD00094F0024038B5264C00250121204608F02A
:102CE00007F8E5602561FFF78BFF224B4FF4C062C8
:102CF0001A602368204A1A6002229A809A60A2F21F
:102D00000222DA601D4A1A614FF48072DA8240F2C0
:102D10000111DA8306229A83D9809D829D612379ED
:102D200003F1804303F504338D221D701A70144B98
:102D300022791A70134B4FF080721A60124A1A608F
:102D400007F066FF2279114B207202F11001104842
:102D500043F8210053119B0003F1604303F56143E5
:102D600002F01F02012101FA02F21A6038BD00BF11
:102D7000C058FF1F04B00440C034FF1F22F00240BF
:102D80001B80004000F00240010000900038FF1F4F
:102D9000D52A0000204B21491A6842F4004210B5A0
:102DA0001A600A6842F002020A601A6842F00202DF
:102DB0001A601B4B1B68002B2CDB1A4B1B68002B6B
:102DC00028DB194A194C00231360536042F8A03CD9
:102DD000A03A01204FF0007142F85C0C42F8581CF8
:102DE0004FF4803142F8541C42F8504C104C114AB8
:102DF0002260C4F8CC30104B18604FF0844058600B
:102E000099600E49D9601A610D4A4FF4C06313608E
:102E10005360136110BD00BF3C80044040800440FB
:102E200000F0024080F0024000F102401A1F010051
:102E300014F00240001F1F1F84F002401B1F0100FE
:102E400008B0044038B5264C00250121204607F083
:102E50004FFFE5602561FFF79DFF224B4FF4C062F5
:102E60001A602368204A1A6002229A809A60A2F2AD
:102E70000222DA601D4A1A614FF48072DA8240F24F
:102E80000111DA8306229A83D9809D829D6123797C
:102E900003F1804303F504338D221D701A70144B27
:102EA00022791A70134B4FF080721A60124A1A601E
:102EB00007F0AEFE2279114B207202F1100110488A
:102EC00043F8210053119B0003F1604303F5614374
:102ED00002F01F02012101FA02F21A6038BD00BFA0
:102EE000C058FF1F04B00440C034FF1F22F002404E
:102EF0001B80004000F00240010000900038FF1FDE
:102F0000D52A0000024A034903480AF00BBE00BF5D
:102F10002843FF1F29270000C058FF1F024A03490A
:102F200003480AF0FFBD00BF2843FF1F2927000008
:102F3000E058FF1F024A034903480AF0F3BD00BFEF
:102F40002843FF1F292700001C59FF1F024A03497D
:102F500003480AF0E7BD00BF2843FF1F29270000F0
:102F6000A059FF1F024A034903480AF0DBBD00BF16
:102F70002843FF1F29270000AC59FF1F024A0349BD
:102F800003480AF0CFBD00BF2843FF1F29270000D8
:102F9000D059FF1F00220A21026081808271C27114
:102FA000704713B504460023C8B2E071A37103F063
:102FB0005BFE08B10323A371034B1B680193019BC4
:102FC000236002B010BD00BFAC5DFF1F38B50C46DA
:102FD0000546D1B2E0B203F055FE21462846BDE8D1
:102FE0003840FFF7DEBF818070477FB50446C07967
:102FF00003F03AFEA2790030C2F3400118BF01206D
:1030000002F0F7038842A371104906D00A680192C2
:10301000019A226083F0020311E00D680295266890
:10302000029DAD1BA688B5420AD302F00102904270
:1030300006D00A680392039A226083F00903A37101
:10304000A079C0F3C00004B070BD00BFAC5DFF1F2D
:10305000807900F001007047807900F00900A0F14C
:103060000903584258417047807900F00900A0F1E7
:103070000803584258417047002070477047FFFFCF
:10308000064B02210022596005499A7083F82420DA
:1030900083F83020D96283F8322070471C5BFF1F11
:1030A000C88B0100C38B1B0441BFC38BC1F3080154
:1030B00003F47E43194358BFC1F30E01C183C38B90
:1030C0009BB2C3827047436819685A6810B50C6890
:1030D00022430A600268154911601549D16001F167
:1030E0008041116113491160417A134A5C180C3117
:1030F00094F82C4053F8211002EBC404646821605A
:10310000017A5C1803EB8101247EC96902EBC404D7
:1031100064682160817A581803EB810390F84000BD
:103120005B6C02EBC0025268136010BD01401F00CF
:103130000110003800001F80348C010010B5427A65
:1031400044680E4B224492F82C2003EBC2025168D3
:1031500000220A60017A2144097E03EBC10149681B
:103160000A60817A214491F8401003EBC1035B6847
:103170001A600368024A1A6010BD00BF348C010057
:1031800001401F00632930B50ED84C09C57A0123D0
:1031900003FA04F22A43C27200EB840001F01F011B
:1031A0008B40C1680B43C36030BD632930B511D873
:1031B0004C0900EB840501F01F01EA68012303FAC2
:1031C00001F122EA0101E96021B9C27AA34022EAB1
:1031D0000303C37230BD0368DA688A4210B50DD0AC
:1031E0001A6812F4804F41F0804002D0D960186113
:1031F00010BD034C1C60D96018611A6010BD00BF7F
:1032000001401F0030B444682268636815682B438E
:1032100013600368DB6811B943F0807101E023F0AB
:10322000807130BCFFF7D7BF41680A684B681068EF
:1032300003431360704730B44468226863681568BC
:103240002B4313600368DB6803F0E0629B0141BF1E
:1032500021F47043090901F470611943114330BC32
:10326000FFF7B9BF10B54268002302F14F0010F814
:10327000014F8C4203D1134493F8880010BD0133F1
:103280000B2BF4D1002010BD70B505461646FFF794
:10329000E9FF044650B131462846FFF7E3FF28B165
:1032A0002040C0B2B0FA80F0400970BD70BD4368E4
:1032B00003F12B022F3312F8010F884203D09A42F8
:1032C000F9D10020704701207047436803F11702CD
:1032D0001B3312F8010F884203D09A42F9D1002023
:1032E000704701207047436893F840208A4209D014
:1032F00093F841208A4205D093F84200431A58427D
:10330000584170470120704710B54268002302F110
:103310004F0010F8014F8C420BD1084800EBC1015F
:1033200002EB83004968C06D0860134493F888007D
:1033300010BD01330B2BECD1002010BD348C0100EB
:103340004368234A9A4270B518D10B2904D1214C05
:10335000227822F0030210E0072906D11D4C2278C2
:1033600022F0030242F0010207E01C2906D1194CA9
:10337000227822F0030242F002022270427A1A44BA
:1033800092F82C40A14221D003F12B05002215F820
:10339000016F8E4217D119680D6859680D4210D01F
:1033A0000D4901EBC4040025646825609C1894F85D
:1033B0002C4001EBC40102F10C04496853F824309D
:1033C0000B60427270BD0132042AE0D170BD00BFB3
:1033D000D4880100EE62FF1F348C01004368214A4B
:1033E0009A4270B518D10C2904D11F4C227822F0D2
:1033F0000C0210E0082906D11B4C227822F00C02A6
:1034000042F0040207E0272906D1174C227822F067
:103410000C0242F008022270027A1A44147EA14281
:103420001FD003F11705002215F8016F8E4215D148
:1034300019680D6859680D420ED00C4901EBC4049F
:103440000025646825609C1803EB8203247EDB69F9
:1034500001EBC40149680B60027270BD0132042A9D
:10346000E2D170BDD4880100EE62FF1F348C0100F0
:103470004368254A9A4230B518D10D2904D1234C0E
:10348000227822F0300210E00E2906D11F4C22785B
:1034900022F0300242F0100207E01B2906D11B4C3B
:1034A000227822F0300242F020022270827A1A44FE
:1034B00092F84040A14226D093F840208A4209D099
:1034C00093F841208A4207D093F842208A421AD1C9
:1034D000022202E0002200E0012219680D6859680A
:1034E0000D420FD00A4901EBC40400256468256031
:1034F0009C1803EB820394F840405B6C01EBC40121
:1035000049680B60827230BDD4880100EE62FF1FF3
:10351000348C01002DE9F041002B00F0DC800468C0
:103520006E4EE568266015F0807F03F001056DD1D1
:1035300095B141B14D1C0978012B18BF41F00041F4
:103540006163294606E090F82C50012B18BF45F026
:10355000004565635E1E00E01E4690F82C4044EA7C
:103560000424002E3ED031B10D46497815F8024BA7
:1035700041EA04242946456807682D7A022E05F1A0
:10358000FF354FEA05350CBF44F0805E44F0104E25
:10359000ADB2C7F834E0023ED0F800E0DEF82C709F
:1035A00017F0F00F14D013F0010FDEF838C005D07B
:1035B00012B182F800C00132013B09E03AB19646EF
:1035C0004FEA2C280EF8028B82F801C07246023BAB
:1035D00007F47047AF42DFD8C3E70168CC6A14F044
:1035E000F00F02D1002BF8D175E08C6BD90704D510
:1035F0000AB114700132013BF4E72AB111462512D9
:1036000001F8025B54700A46023BEBE795B141B109
:103610004D1C0978012B18BF41F000416163294618
:1036200006E090F82C50012B18BF45F0004565636B
:103630005E1E00E01E4690F82C70002E37D021B19F
:103640004F780C78023144EA072744680568247AE9
:10365000022E04F1FF344FEA04340CBF47F0805EC1
:1036600047F0104EA4B2C5F834E0023E0568D5F824
:103670002CE01EF0F00F10D013F0010FAD6B04D052
:103680000AB115700132013B07E02AB194460CF8EB
:10369000025B2D1255706246023B0EF4704EA64539
:1036A000E4D8CAE70168CC6A14F0F00F02D1002B0D
:1036B000F8D110E0DC07896B04D50AB11170013232
:1036C000013BF4E72AB1144604F8021B09125170B9
:1036D0002246023BEBE7BDE8F08100BF00041F80FB
:1036E00070B50446082008F0A2FC0021054607F04A
:1036F000FFFA6563082008F09AFC05460021384E61
:1037000007F0F6FA2B79A56333702168A06B383186
:10371000FEF7B2FFA16B0A68938B9BB243F00803DC
:10372000938363685A7C0B7903F1804303F5043378
:1037300002F03F0242F0800200251D701A7063689B
:103740005869A36B1A79274B02F1100143F8210045
:1037500053119B0003F1604303F56143012102F023
:103760001F0201FA02F21A60A36B1A68938B9BB2D4
:1037700043F002039383636B1B7933702168606BA2
:103780003431FEF78AFF616B0A68938B9BB243F07A
:103790000803938363681A7C0B7952B103F1804369
:1037A00003F5043302F03F0242F080021D701A70EC
:1037B00012E0A06B0568E98B5B0289B203F4F0525A
:1037C00021F4F0536FEA434362EA53439BB2EB8325
:1037D0000268D38B9BB2D382012084F82D0070BD88
:1037E0001A8000400038FF1F2DE9F0471F4690F86F
:1037F0002D30DDF8208004460E46914623B194F822
:103800002D30022B07D103E0FFF76AFF0028F6D125
:103810000020BDE8F087404607F0DEFB012F0DD801
:103820003B464A4631462046FFF774FED8F8003042
:1038300000221B681146404698478EE06368DD68A9
:10384000AF429CBF00232363636B1B688CBF7F1B4D
:103850003D464FF0000188BF276399716F1EA6B1E6
:10386000636B16F801AB1A680120D1711660908065
:103870001A6890601A687842BFB2D7831B68D0601C
:10388000DF82636B1B68D9600AE02146606B11F828
:103890002CAFFEF7F1FE636B39461868FFF702FCA8
:1038A000A36B1B68B9F1000F15D00022DA71A36B6E
:1038B000196801208A71C1F810908882196888609F
:1038C00019686842ADB2CD831B688861DD82A36B45
:1038D0001B689A610AE083F807902149A06BFEF704
:1038E000DCFEA36B29461868FFF7DCFBC4F83C80BC
:1038F00008F0BEFB23681B4A1A601B4ADA624AF0D2
:1039000000425A636268A56B127C18482AB1184AB3
:103910001A632B790370636B1AE02E684FF4403200
:103920001A63F38B99B2636B1B795B0203F4F05259
:1039300021F4F0536FEA434362EA53439BB2F383AB
:103940002A68D38B9BB2D382636B1B790370A36B02
:103950001B790370022384F82D300120BDE8F08725
:10396000705BFF1F000C1F8000000FFF1B800040DA
:103970000000030308B5024800F014F808BD00BFBA
:103980006C43FF1F08B5024800F00CF808BD00BFEB
:10399000AC43FF1F08B5024800F004F808BD00BFA3
:1039A000EC43FF1F70B5836B1A79304B1A70436B71
:1039B0001A792F4B1A70826B12791A70026B0446B7
:1039C000002A3FD04368D9688A4203D9521A026359
:1039D000012110E0436B511E1868FFF763FBA36BD6
:1039E000216B1868FFF75EFB216B002311F1FF319B
:1039F00018BF01212363636B1B68186804F12C0254
:103A00009042226805D1D36894F82C3043F00043EB
:103A10000EE0D06810F0804F186815BF1D681D6853
:103A20000088007814BF023501351D6040F0004366
:103A30005363A36B1A790F4B1A70A9B1626B127999
:103A40001A7070BD03680C491A63D962D96821F0F5
:103A50008041D960032380F82D30C06B0368114684
:103A60001B68BDE87040184770BD00BF1F80004054
:103A70001C8000401B80004000000FFFB0F85E304B
:103A80002BB190F85D30202B03D901230371002066
:103A900070475A1C034480F85D2083F83B100120D6
:103AA000704738B50446B0F85E001546A0B194F8EA
:103AB0005D30C3F12102954282BF0120154620717D
:103AC00004F13B0018442A460AF0F3F894F85D30FC
:103AD0002B4484F85D30284638BD43691A685B681A
:103AE00012681A420ED0084B9942036901D82C2261
:103AF00004E0064A914294BF1C2212225A700369C4
:103B000004229A71704700BF7F1A06003F420F00DF
:103B100070B50023456980F8383080F8393080F876
:103B20005C3080F85D3080F85E3080F85F30296866
:103B30006A680E684366324383660A60026993705E
:103B4000466990F86110124A31440D7A4B7B02EBC2
:103B5000C5051B026D6803F4E06343F064032B604A
:103B600090F862303344997CDB7D02EBC1021B028A
:103B70005268084903F4E06343F064031360FFF7FD
:103B8000ACFF036920225A71036980229A7070BDCC
:103B9000348C0100A086010070B5436990F8612063
:103BA0001A44147A8C4224D0DD1D002215F8016FCE
:103BB000FF2E1ED08E4203D00132052AF6D170BDF1
:103BC00019680D6859680D4211D00A4901EBC40407
:103BD00013446468002525601C7A5B7B01EBC401FB
:103BE0001B02496803F4E06343F064030B6080F850
:103BF000612070BD348C010070B5436990F862207B
:103C00001A44947C8C4225D003F11105002215F84A
:103C1000016FFF2E1ED08E4203D00132052AF6D14D
:103C200070BD19680D6859680D4211D00A4901EB41
:103C3000C40413446468002525609C7CDB7D01EB93
:103C4000C4011B02496803F4E06343F064030B60A2
:103C500080F8622070BD00BF348C010038B50C467E
:103C6000FFF756FF64000369E4B21C700369012288
:103C7000C02180F85F2099704369197F4B119B0028
:103C800003F1604303F5614301F01F018A401A60AC
:103C900038BD43691A6811685A68114210B524D0BA
:103CA0001B7F0122591103F01F0302FA03F30F4A8D
:103CB00042F8213003690E4A00219970436990F857
:103CC00062401C44A47C02EBC4046468216090F848
:103CD00061001844007A02EBC00252681160196852
:103CE0005B680A6822EA03030B6010BD80E100E014
:103CF000348C010038B50269D578EDB215F0100F9B
:103D0000044605F0400303D103F0FF012BB92AE07C
:103D10001021D170002BF7D138BD05F0040505F056
:103D2000FF02374BCDB100221A70636E84F85D201C
:103D300003B1984794F85D3023B9012284F85D20DF
:103D400084F83B302369D0229A70236994F83B2091
:103D50001A71012384F85C304DE00121197084F858
:103D6000392023692DE022699379DBB203F06000EA
:103D7000602809D103F0DF039371A36E23B184F8A7
:103D8000381094F83900984723699A7802F01002A5
:103D900002F0FF01D2B115F0010512D194F85C20B8
:103DA00094F85D10914281BF511C121984F85C1087
:103DB00092F83B208CBF1A711D712369D0229A7032
:103DC00019E0C0229A7023691B7914E084F860100E
:103DD0009A7942F020029A7123691A7994F839305D
:103DE0001F2BD2B207D80649097821B1591C2344A8
:103DF00084F839101A7623690222DA7038BD00BFC0
:103E0000715BFF1F2DE9F347354D364F2B6800934B
:103E1000DDF80080044600214FF496762269D378BD
:103E20009B0658D52B680193019BC8EB03030F2B0E
:103E3000F4D9002947D1626994F86130134405210F
:103E4000187A02F01FFF626994F86130134401216F
:103E500093F812A0504602F015FF4FF00909002117
:103E6000504602F0D5FE3346013BFDD101215046BC
:103E700002F0CEFE3346013BFDD1B9F10109EED18E
:103E8000606994F861200244117A537B07EBC10109
:103E90001B02496803F4E06343F064030B6094F889
:103EA000623003449A7CDB7D07EBC2021B0252683E
:103EB00003F4E06343F0640313604FF41673013BB3
:103EC000FDD10121AAE7102BA8D000209070236912
:103ED00080229A7000E0012002B0BDE8F08700BFA8
:103EE000AC5DFF1F348C01002DE9FF4103691222F4
:103EF000DA700269937803F0200304460D4603F05C
:103F0000FF0613B1B423937008E0FFF77BFF00288E
:103F100060D0236984F85F60B0229A702F4B2169CA
:103F20001A680092009ECA7802F0200202F0FF0098
:103F3000002A45D00020022794F85D20C1B28A42B1
:103F400035D96618226996F83B6016711A68039293
:103F5000DDF80C802669F278D2B202F0020E0EF083
:103F6000FF0CBEF1000F0BD1920609D51A68029220
:103F7000029AC8EB0202052AEDD986F802C026E0B3
:103F8000F7702669F278D2B212F0100F02D112F057
:103F9000200F03D18023B370042009E0D20700F181
:103FA0000100C9D500290CBF0220032001E0002038
:103FB00015B1236980229A70002384F85E300AE0EC
:103FC0001A680192019A921B042AACD9887023695D
:103FD00080229A70042004B0BDE8F081AC5DFF1F20
:103FE0002DE9F0439946002380F8383080F83930C5
:103FF000036917461222DA700269937803F02003EE
:1040000089B00546884603F0FF0413B1B4239370CA
:1040100009E0FFF7F7FE002800F0BD802B6985F866
:104020005F40B0229A705E4E2A693368009300990F
:10403000D37803F0200303F0FF0433B9336801930E
:10404000019B5B1A042BF3D917E04FEA480848F0AC
:1040500001085FFA88F882F80480336802930299B5
:104060002A69D37803F0020303F0FF044BB93368E5
:104070000393039B5B1A052BF3D994702B69802261
:1040800010E00223D3702B69D87810F0110403D00C
:1040900080229A7000247EE037B9B9F1000F14BF76
:1040A0008022A0229A7076E0012F0CBFA822A022C5
:1040B0009A702B691B7900200221A824012F2A69FC
:1040C00033682BD00493DDF810C0D37803F00203DB
:1040D00003F0FF0E4BB933680593059BCCEB03034C
:1040E000052BF2D982F802E04FE0D1702A69D3782B
:1040F000DBB213F0100F4DD19B064BD5013FFFB241
:10410000012F08BF94702B691F289FBF421C4019C4
:104110001B7903768CBF1B79D0B2CFE70693069C40
:10412000D37803F0020303F0FF013BB93368079330
:10413000079B1B1B052BF3D9917026E00223D3703C
:104140002A69D378DBB2D9060BD51023D3704FF48C
:104150009673013BFDD12A69937803F0F7039370BE
:1041600018E09B0616D5B02393701F282B699FBFBC
:10417000421C40191B7903768CBF1B79D0B200BF5B
:1041800000BF00BFB9F1000F02D02B6980229A70E6
:1041900085F839000446204609B0BDE8F08300BF29
:1041A000AC5DFF1F2DE9F3419DF820409DF8248070
:1041B00005460E461746E4B101934B0080F83B30AC
:1041C000032C4FF0010380F85E3080F85D3028BF8B
:1041D0000324013CE4B202AB1A192B6812F8041C48
:1041E0001B6828469847002CF3D121462846FFF744
:1041F0007BFE202F3A46434628BF202231462846E0
:1042000002B0BDE8F041FFF7EBBE70B50D461446B5
:104210009DF81060BBB10D4B0122400083F83B00BC
:1042200083F85E2083F85D203CB115F8011B074838
:10423000013CFFF723FCE4B2F6E731460348BDE852
:104240007040FFF751BE042070BD00BF2C44FF1F1B
:104250000148FFF74FBD00BF2C44FF1F0148FFF787
:1042600049BD00BF9844FF1F0148FFF743BD00BF91
:104270000445FF1F90F8392090F83800101A704755
:1042800090F8383090F839209A4281BF5A1C1B1898
:1042900080F83820187E98BF4FF0FF30704790F8B4
:1042A000383090F839209A4286BF1B18187E4FF09C
:1042B000FF3070477047FFFF054A40F243434FF419
:1042C0008861136053609160D360136153617047DC
:1042D00000D00440054A40F20313002113605360EC
:1042E0009160D36013615361704700BF00D00440F8
:1042F0004FF47A7330B51B4C584301220923110146
:10430000B4FBF1F18842174902D30124134607E0B8
:10431000013BFAD05200F2E7102C134404D00134D0
:10432000B1FBF3F5A842F7D30F48036823F0080365
:104330000360016821F47F23D20123F47F6343F4F7
:10434000602302F47F421A43631E42EA0313074AC2
:10435000036013681B07FCD5036843F00803036080
:1043600030BD00BF0095BA0A2C100B4024100B4042
:104370001E4A136843F0800310B513601C4B1C46A3
:104380001968C907FCD421688907F9D4194B4FF083
:104390008071186014681848144B2040013910B916
:1043A0000029F7D102E009B1012807D0136843F4CE
:1043B000702343F001031360012010BD1A68120638
:1043C00005D51A6842F001121A60032010BD186862
:1043D0001A6810F4803017BF42F0011242F0010257
:1043E00005201A6008BF1A6010BD00BF30100B40D6
:1043F00024100B400C100B4001000E00F8B50A4DC4
:104400000A4F4FF47A7400262E600948FFF7B0FF78
:10441000013C05D03B685B0705D50028F4D0F8BD0A
:10442000002808BF0520F8BD08100B4024100B40E1
:104430000000DB0C70B5084D002306462B600748D2
:10444000FFF796FF38B9064C064823682E60FFF741
:104450008FFF00B9236870BD08100B4000001A37A9
:1044600010100B4000000229074B1A783AB99A78CD
:104470003AB15B78002B0CBF02200320704700206C
:1044800070470120704700BF745BFF1F70B5384B49
:104490001A780546002A68D15B7803B94902354C81
:1044A00035484FF6FF732360344B4FF48132196067
:1044B00043F8042CFFF75CFF002857D1304B3148FC
:1044C000314A1B6805F1400305F51075216841F07C
:1044D000200611F4E00F266009D041F4E003254ADC
:1044E00043F020031360FFF789FF012036E00168E5
:1044F0000905FCD5116843F8401C116843F83C1CC1
:10450000116843F8381C116843F8341C116843F8EB
:10451000301C116843F82C1C116843F8281C1168E2
:1045200043F8241C116843F8201C116843F81C1C34
:10453000116843F8181C116843F8141C116843F8FB
:10454000101C116843F80C1C116843F8081C116812
:1045500043F8041C4033AB42B8D1002023689B07CA
:10456000FCD5044B094A1A6070BD032070BD00BF22
:10457000745BFF1F30100B4010003A1108100B4005
:1045800010100B4024100B4020100B4022000001A3
:10459000F8B5294B1A780546002A4AD15B7803B949
:1045A0004902264C264823682360264B4FF481326B
:1045B000196043F8042CFFF7DBFE00283AD1224BA8
:1045C000DFF88CE01B6805F50076274623681B4A58
:1045D000D906FBD53B6813F4E00F06D0136843F40B
:1045E000E00343F01003136016E005F1400255F8B4
:1045F000043BCEF80030AA42F9D123680F4943F0BA
:1046000010032360206810F4E00009D00B6843F425
:10461000E00343F010030B60FFF7F0FE012001E020
:10462000B242D3D123689B07FCD5044B074A1A60DA
:10463000F8BD0320F8BD00BF745BFF1F30100B40B6
:1046400000003A1808100B4010100B401200000137
:1046500020100B40064A136843F04063136002F5D4
:104660006A323032136843F400331360704700BF7E
:1046700000D800402DE9F047934CFFF7EBFFFFF720
:1046800029FE236843F0807343F4004323602368CA
:10469000DE01FCD44FF4C870FFF72AFE8B4A136882
:1046A0009D07FCD1FFF708FE894B8A4E8A494FF4DB
:1046B00081321A603368894A23F0380343F02803B3
:1046C000336013681360864B196040F2DC53216835
:1046D00041F00061216021680901FCD4013BF6D161
:1046E0001168804C41F080011160784A1268636063
:1046F00012F4803F14BF0020022020706370A3706A
:10470000A360002840F0DD80774A784F1360184698
:104710003B60FFF72DFE50B9754D76482B684FF47E
:10472000D5733B60FFF724FE28B105280AD001208D
:104730002070BDE8F0872B682B68B3F5D57FF6D1E4
:10474000012363700020FFF775FE0028EFD12B686E
:1047500013F4401F20D06378DFF8A0A1002B664B34
:104760000CBF4FF44019994680464846FFF762FE59
:10477000002840F0A0802B68002B08F1010802DB24
:10478000D045F2D19AE05D4B984500F09780584BA8
:104790001B685B0040F1928000233B605848DFF8C3
:1047A0004C91FFF7E5FD0028C1D12B68C9F8000046
:1047B0005448DFF83C81FFF7DBFD0028B7D1D8F87B
:1047C0000030D8F800305048DFF818811B0C1B046B
:1047D0006360C9F80030FFF7CBFD0028A7D14B4A32
:1047E0004B4813681B0E88F803304A4B1B6813F4C0
:1047F000400F14D11368116802680068890201F43F
:10480000406141EA9252511CC0F3C2120232C3F31A
:10481000032301FA02F2093B02FA03F307E0012342
:1048200088F802300368C3F3152301339B02C8F8EC
:10483000083063683B603848DFF8A880DFF8AC9048
:10484000FFF796FD00287FF472AF2B683348284F9E
:104850004FF40073C9F80030FFF78AFD00287FF499
:1048600066AF3B68D8F80430C9F800302C48FFF731
:104870007FFD00287FF45BAF3B682A480223C9F81C
:104880000030FFF775FD00287FF451AF3B683368B7
:1048900023F006033360336843F002033360FFF70D
:1048A00019FD46F2A810FFF723FDFFF705FD98F864
:1048B0000000BDE8F0870120BDE8F08700236370A9
:1048C0006AE7BDE8F08700BF2C100B4024100B40B6
:1048D00004100B4028100B40BB007F1130100B4020
:1048E00034100B40745BFF1F38100B4008100B4056
:1048F00010100B4000001A0800003040A086010094
:104900000000090200001A030000090918100B40FA
:1049100014100B401C100B4000001B0700001A1065
:1049200000001A3700001A06004870470095BA0ABE
:10493000084B1A6842F480621A604FF00042DA6253
:10494000FF225A63DA6A002AFCDA024B986BC0B283
:10495000704700BF00C00240064B1A6842F48062F4
:104960001A604FF00042DA625863DA6A002AFCDA11
:10497000704700BF00C0024013B5144C052818D87A
:10498000DFE800F00303070B0F1300230122104997
:1049900012E0002301220F490EE0002301220E49FC
:1049A0000AE0002301220D4906E0002301220C4900
:1049B00002E00C490023012201A8FDF7AFFE019B94
:1049C00009482360FEF77FFB02B010BD885BFF1F24
:1049D00000366E0100127A0000093D00C0C62D00AD
:1049E00080841E00801A06006C43FF1F08B5012159
:1049F000007802F00DF9044B1A7922B10022034825
:104A00001A71FCF7BFF808BD885BFF1F6C43FF1FDE
:104A100010B5084B1A7904462AB9012219680648CC
:104A20001A71FCF76BF820780021BDE8104002F005
:104A3000EFB800BF885BFF1F6C43FF1F08B5084637
:104A4000FFF79AFF012008BD37B50A4B1A6800929C
:104A5000009D1C46FFF76CFFFF2807D023680193D9
:104A6000019B5B1B8B42F5D3002000E0012003B0CB
:104A700030BD00BFAC5DFF1F70B50C464FF49671A2
:104A800016460546FFF7E0FF44F04000FFF764FFDD
:104A9000182126FA01F0C0B2FFF75EFF083911F1C4
:104AA000080FF6D124B1082C14BFFF20872000E0A6
:104AB0009520FFF751FF0021FFF73AFF03066870CA
:104AC00003D50131B1F5807FF6D170BD2DE9F043FA
:104AD00000234C4E027085B0837033680193044606
:104AE000884610460121019F02F092F801212078AA
:104AF00002F0C8F80121207802F08AF8424A1368CF
:104B000043F4805313600620FFF736FF3F4B4048C5
:104B10001968FBF7F3FF0A21FF20FFF71DFF01399A
:104B200011F0FF01F8D13A48FCF72CF82046FFF7C6
:104B30006FFF002211462046FFF79EFF0128054621
:104B4000607007D033680293029BDB1BB3F5FA6FEA
:104B5000EFD94EE04FF4D57208212046FFF78CFFC5
:104B6000430701D5A5700BE00421FFF7E1FE0139F1
:104B700011F0FF016070F8D1AA283AD10223A37086
:104B8000A378022B0CBF4FF080494FF000090022A0
:104B900037212046FFF770FF4A4629212046FFF7BC
:104BA0006BFF0246607038B133680393039BDB1BD5
:104BB000B3F5FA6FEBD91CE0A378022B12D13A219E
:104BC0002046FFF759FFA0B9FFF7B2FE00F0C00082
:104BD000C02804BF0323A370FFF7AAFEFFF7A8FEB7
:104BE000FFF7A6FE2046FFF701FF4046FFF7C4FE91
:104BF00003E02046FFF7FAFE0025284605B0BDE891
:104C0000F08300BFAC5DFF1F3C800440885BFF1F4A
:104C10006C43FF1F37B50D4B1A680092009C054688
:104C20001946FFF785FEFF28687008D10B680193CD
:104C3000019B1B1BB3F5967FF3D9002003E0A0F185
:104C4000FE035842584103B030BD00BFAC5DFF1FAA
:104C50002DE9F0418378032B0E46044618BF4E021F
:104C60001546FFF7D5FE324611212046FFF704FF17
:104C7000002844D12046FFF7CDFF00283FD0234B2A
:104C8000234A2448186005F5FD765A63A91C5A6327
:104C900005F5FE785A639E4641450FD0DF6A17F04E
:104CA000F00FFBD0CEF83420DEF8387001F8017C2C
:104CB0004FEA272C01F802CC0231EDE7134A05F543
:104CC00000751746B542114B0AD9D36A13F0F00F9D
:104CD000FBD0BB6B191206F8021B06F8013CF1E78A
:104CE0000B4A18605A63DA6A12F0F00FFBD0074BD8
:104CF00020469B6BFFF77AFE0120BDE8F08120463D
:104D0000FFF774FE0020BDE8F08100BF00C0024044
:104D1000FFFF009000041F80F8B51D4B0646186881
:104D20004FF0004540F4806018600024DD621846B2
:104D300059639E462946C56A002DFCDA1D68175D39
:104D400045F480651D60D9625F63DEF82C50002D4C
:104D5000FBDA151902346F781D68B4F5007F45F44D
:104D600080651D60D9625F63E5D1094BDA6A002A6C
:104D7000FCDAFF20FFF7F0FDFF20FFF7EDFDFFF766
:104D8000D7FD707000F01F00431F58425841F8BD16
:104D900000C0024070B5044616460D4631B3837814
:104DA000032B18BF4D02FFF733FE2A461821204679
:104DB000FFF762FE0546C8B93246FE212046FFF7DE
:104DC000ABFF98B14FF416712046FFF73DFE68B176
:104DD0002A460D212046FFF74FFE38B9FFF7A8FD00
:104DE00020B92046FFF702FE012070BD2046FFF7E4
:104DF000FDFD002070BD00BF014B024A1A607047E4
:104E0000885BFF1F0320003810B500F1080204463C
:104E10000121006A01F022F840B1E3692BB9A368CF
:104E2000E361637963F07F036371012010BD70B5A6
:104E30000546FFF7E9FF08B9002070BD2A6AAB6894
:104E4000167C1479023B03FA06F6536933445E1E5E
:104E50003CB1301900F04CFF0028EDD0013CE4B229
:104E6000F6E72B6A1A7C4FF400739340AA69134447
:104E7000AB61012070BD10B50446006900F00CFF65
:104E800018B1207D014B03EB401010BD9C5BFF1F50
:104E9000F7B5C46906460F46154664B301AA214614
:104EA000306A00F03FFF38B30198631C83421ED084
:104EB000336A124A93F820E04FF6F871BEF1100FF2
:104EC00008BF0A46904214D3F269197C023A8A401C
:104ED00059690A443A6059691A7901391144A21E84
:104EE0001C7C02FA04F40C442C60012004E01C46F3
:104EF000D4E7002000E0204603B0F0BDF8FFFF0F2C
:104F0000002270B5013813462E2410F8015F202DC1
:104F100008D0082A02BFCC545D1CEBB25D1C067899
:104F2000CE54EBB201320B2AEFD10022CA5470BD2D
:104F300070B54B1E01F10A02202403F8014F934281
:104F4000FBD1441E0022072514F8013F0BB32E2B82
:104F500004D10A2D22D008220A25F5E7104E16F8B2
:104F6000010F10B18342FAD118E0954217D3A3F193
:104F700021065D2E13D8A3F16106192E02F101005E
:104F800098BF203B0A44C0B298BFDBB21370024600
:104F9000DAE70878203818BF012070BD002070BD06
:104FA000D78B010038B5827904460D460AB100203E
:104FB00038BD91F82030102B06D1022383714B8C21
:104FC000C2615B0183610CE0202BF0D1032383716C
:104FD000496AC16100F11802284600F0D7FE002896
:104FE000E5D000230120607123752562A360E36092
:104FF000236138BD2DE9F041002580460E46471E4D
:105000002C4617F8013F202B0CD0082D05D12E215E
:105010000F4800F019FE0134E4B2387805F040FC86
:105020000134E4B201350B2DEBD198F80B3003F0CD
:105030001803102B05D12F21054800F005FE01347F
:10504000E4B2B44201D22021F6E7BDE8F08100BF0E
:105050004448FF1F07B50A22B0FBF2F303F1300109
:1050600002FB130330338DF8053001A800238DF8BF
:1050700004108DF8063009F0CBF8014601A805F0C0
:10508000AFFB03B05DF804FB38B50D4D411204468B
:1050900001F2BC71284606F013FA2D21284600F0D3
:1050A000D3FDC4F34310FFF7D5FF28462D2100F0B0
:1050B000CBFD04F01F00BDE83840FFF7CBBF00BFB9
:1050C0004448FF1F38B50C4D0446C00AFFF7C2FF25
:1050D0003A21284600F0B8FDC4F34510FFF7BAFFA7
:1050E00028463A2100F0B0FD04F01F004000BDE862
:1050F0003840FFF7AFBF00BF4448FF1F2DE9F84F0E
:1051000089468179044619B94FF0FF30BDE8F88F20
:105110004179C907F8D5C7688169DFF8E4A0DFF8ED
:10512000E4B0C91B914228BF11460F468846B8F12A
:10513000000F34D0A279E168206A022AC1F3080581
:105140004FEA512202D1406A104418E00679013E2C
:105150001640F6B25DB956B911B9E269A26006E02F
:1051600004F10802A16800F0DDFD0028CCD0226A1D
:10517000A068117C52690238884010443044C5F55B
:10518000007662794645A8BF4646530602D4B6F576
:10519000007F07D1DAF80020904214D102E03846AF
:1051A000BDE8F88F002100F077FD0028ACD0134B4C
:1051B0001D44A81909F1FF32854212D015F8011BD0
:1051C00002F8011FF8E7DBF800502A78FE2A0FD119
:1051D00001464846FFF75AF9B0FA80F04009002826
:1051E00092D0E2683244B144E260C6EB08089EE720
:1051F00001464A462846FFF72BFDF0E79C5BFF1F60
:105200007045FF1F9C5DFF1F38B58379012B054654
:105210000C4616D9C368DA0613D120222146284647
:10522000FFF76CFF40B2202809D1237863B1E52B4A
:10523000F3D02E2BF1D0E37A1B07EED438BDC01784
:1052400038BD4FF0FF3038BD184638BD37B58379CB
:10525000012B044601D800200FE0C36801220DF1A4
:105260000701C3F34315FFF749FF0128F3D1E368B2
:1052700003481F33E36000EB451003B030BD00BFAF
:105280009C5BFF1FF8B5837904460E460BB90020DE
:10529000F8BD82698A42FAD3022B01D01EB9A660FA
:1052A000E6600120F8BD236AE0681B7C421E03F122
:1052B0000901731ECA40CB409A4200D828B9E2695E
:1052C000A2601D4604F1080709E09B1AF9E73A4677
:1052D000A168206A00F026FD013D0028D7D0002DEE
:1052E000F5D1DDE738B58379054613B390F905307C
:1052F000002B1ADA0121FFF7BEFD0446C8B1AB79D5
:10530000012B9CBFAB69C361EB6943831B0C838298
:10531000094B1B682BB100F1160118309847238BFD
:1053200063826B7903F07F036B71BDE8384000F056
:105330008FBC002038BD00BF905BFF1F10B5044636
:10534000FFF7D0FF10B10023A371012010BD38B5C5
:1053500005460C46FFF7C6FF08B9002038BD0021FE
:105360002846FFF788FD0028F7D0214600F12003EA
:1053700050F8042B41F8042B9842F9D1012038BD94
:105380002DE9F84F1C4683799DF828B09DF82C80B4
:105390009DF830909DF8347006460D46002B3ED0A7
:1053A000A2F2BC7A1FFA8AF37F2B38D8631E0B2B2C
:1053B00035D80BF1FF331E2B31D8B8F1170F2ED88B
:1053C000B9F13B0F2BD83B2F29D80121FFF753FD13
:1053D00028B34BEA441444EA4A237910EA079BB203
:1053E00041EA491141EAC82148BF4382AC0789B26A
:1053F00006D517F0010718BF64270382C1814773E0
:105400006A07084A48BF0383137848BFC18243F044
:10541000010313703046BDE8F84FFFF763BF00206B
:10542000BDE8F88F985BFF1FF7B58379012B044621
:105430000D460BD14279920708D582698A4205D37D
:10544000002A3FD0E668FFF71DFF08B900203AE0C8
:105450003DB9E169206A00F05BFD0028F6D0E56106
:105460001EE001AAA168206A00F05CFC0028EDD0D3
:10547000206A164B90F8207001994FF6F872102FA1
:1054800008BF134699420BD200F042FD0028DDD040
:105490006FF07042A168206A00F0A0FC0028D5D00F
:1054A0006379A56163F07F0363712046FFF71AFFFC
:1054B0000028CBD0B5422946204628BF3146FFF709
:1054C000E1FE00E0184603B0F0BD00BFF8FFFF0F9B
:1054D00038B51C4B03EB41131546DA7A12F0110F65
:1054E000044604D015F0420F01D0002038BD164A02
:1054F0002175126822615A8B998A42EA0141E16161
:10550000DA7A12F0180203D1DB69A361012309E002
:10551000102AEAD104F11802206A00F037FC0028B2
:10552000E3D00423A37105F00F03002163716B0620
:10553000A160E16004D52046BDE83840FFF774BFA4
:10554000012038BD9C5BFF1F7045FF1F2DE9F04314
:10555000847985B0064688461F46002C77D101A97C
:105560001046FFF7E5FC002871D0D8F82030DFF8AE
:10557000F8903362C8F80840C8F80C40D8F80C50CE
:10558000D8F818309D4221D24046FFF75FFEC5F3A0
:105590004315014600285AD0037873B1E52B58D043
:1055A0000B2201A808F076FB0028E7D107F03003B2
:1055B000302B4CD03A46294645E034B9D9F8003072
:1055C000357533610B78002B45D1012407F01203A8
:1055D000122B3CD134B101213046FFF74CFC04467C
:1055E00050B934E098F80630022B30D04046FFF72F
:1055F0001EFC60B334751A4C20220021204608F0AE
:105600007EFB01AB03CB206061601A889B78A3729C
:10561000144B22811B682BB104F10E0104F1100020
:10562000984706E021222274A3732822082362747B
:10563000E373238A63822383E389E38200F008FB18
:1056400028B1317D3A463046FFF742FF05E00020A1
:1056500003E0002CB2D0012490E705B0BDE8F08350
:105660009C5BFF1F905BFF1F7045FF1F2DE9F04300
:10567000332389B007468846FFF768FF002867D0C4
:10568000012404237C71BB713846FFF7D0FB00284E
:105690005ED03846FFF726FE002859D0214638460E
:1056A000FFF7E9FB0346002852D01022C2726D4674
:1056B000024600F1200E6C46106851682E4603C663
:1056C000083272453546F7D19D8A5E8B2021002332
:1056D000E21801330A2B5170FAD13B6AF8691A7C3F
:1056E0005B69023890404FF02E09012118448DF873
:1056F000009000F0D1FA58B3ADF81450ADF81A602C
:1057000026460FCE144D8DF801900FC596E80F0078
:1057100085E80F0098F80630104D023B012B8BBF37
:10572000D8F81C3000229AB2134688BF1B0CADF883
:105730001430ADF81A200FCC0FC594E80F0085E89F
:105740000F004023FB6009B0BDE8F04300F080BAD1
:10575000002009B0BDE8F0839C5BFF1FBC5BFF1F0E
:10576000F8B51F46837904460D461646E3B907F09F
:105770003003302B18D00B6A036251012846FFF723
:1057800081FD88B12846FFF761FD68B103785BB100
:10579000E52B09D02E2B07D03A4606F00F01204604
:1057A000BDE8F840FFF794BE0020F8BD2DE9F047B2
:1057B000002311F0030F8AB005460E46174683609A
:1057C000C36014BF4FF00E08984601F00109284647
:1057D000FFF73CFD0446002864D00378002B61D01D
:1057E000E52BF4D02E2BF2D0C37A03F0080303F09C
:1057F000FF0A002BEBD14FFA8AF3BB420AF1010AF0
:1058000004DA2021294800F01FFAF4E74146204637
:10581000FFF7F0FBB9F1000F09D0208BFFF734FC44
:105820002021224800F010FAE08AFFF74BFCE37ACF
:1058300003F01803102B01D0B2070AD41B4805F05F
:10584000D3FD7307C3D5E37A03F01803102BBED141
:105850000AE02021154800F0F7F900230A22E16947
:10586000124805F0F2FDE9E7EC68114A019264097B
:10587000013C0023A4B28DF808308DF80A3022468E
:105880000123294601A8FFF76BFF28B1BA1CD2B249
:10589000314601A8FFF78AFF611C49012846FFF73E
:1058A000F1FC94E70AB0BDE8F08700BF4448FF1F51
:1058B000C88B010010B500210446FFF7B5FD60B1AB
:1058C00001212046FFF7D7FA38B1E5230370002302
:1058D000A371BDE8104000F0BBB9002010BD38B581
:1058E00004461D46E3B13323FFF730FEC0B1206A02
:1058F000037C691E0933D94004F11C02013100F018
:10590000ADFA18B92046FFF7D5FF09E06379A56124
:1059100063F07F0363712046BDE83840FFF7E2BCC7
:10592000002038BD00B58BB00023094A8DF808303F
:1059300001928DF80A300A460223014601A8FFF7BA
:1059400005FE10B101A8FFF7B5FF0BB05DF804FB31
:10595000C88B010010B58379042B04461FD10023A6
:105960008360C360E268A3699A420DD22046FFF7C4
:105970006DFCA0B103783BB1E52BF3D02E2BF1D019
:10598000C37A1B07EED40AE00123A371637943F0C5
:10599000020363712046BDE81040FFF78BBF002073
:1059A00010BDF0B50026274F86608BB00446C66058
:1059B000E568A3699D4239D220468DF808600197B9
:1059C0008DF80A60FFF742FC70B3037873B3E52BE0
:1059D000EED02E2BECD0C37A1B07E9D4C5F34F15BC
:1059E00001232A46214601A8FFF7BAFEE0B19DF83F
:1059F0000A30042B09D101A8FFF7D3FFA0B1691C1D
:105A0000E36849018B420AD1D2E79DF8093001A829
:105A100043F002038DF80930FFF74CFFEEE7204614
:105A2000FFF730FC0028C3D1002008E0A379023B37
:105A3000012B03D92046FFF78DFF00E001200BB0BA
:105A4000F0BD00BFC88B01002DE9F74F8379012B12
:105A50000446884617460BD14379990708D55B075A
:105A60000AD5A169E3688B4206D0FFF70BFC18B991
:105A7000012323710020A9E0B946DFF86CA13BE0C7
:105A8000206A0679013E06EA552616F0FF06C5F3A0
:105A9000080536D0216AA268087C4969C5F50073FB
:105AA0001FFA83FBD945A2F1020238BF1FFA89FB16
:105AB00082400A44BBF5007F164448D1DAF8002042
:105AC000964204BF4FF0FF32CAF80020414A1068E6
:105AD0000278FE2A36D131464046FEF759FDB0FA2B
